:100000000C9433010C9450010C9450010C94500149
:100010000C9450010C9450010C9450010C9450011C
:100020000C9450010C9450010C9450010C9450010C
:100030000C9450010C9450010C9450010C945001FC
:100040000C9450010C9450010C9450010C945001EC
:100050000C9450010C9450010C9450010C945001DC
:100060000C9450010C9450010C9450010C945001CC
:100070000C9450010C9450010C9450010C945001BC
:100080000C9450010C9450010C9450010C945001AC
:100090000C9450010C9450010C9450010C9450019C
:1000A0000C9450010C9450010C945001000000007D
:1000B000240027002A002D00300000000000250049
:1000C00028002B002E003100000000002300260035
:1000D00029002C002F000404040404030405020278
:1000E00002020403020202020606060606060404D1
:1000F0000202020404040802011040804010204063
:10010000804080080204018040201002011080100D
:10011000204040200000000200090F0000030401FD
:10012000000C0000000000000000000000000000C3
:10013000000000070605040100080A0B0C0D090069
:10014000000000240027002A002D003000000000DD
:1001500000250028002B002E0031000000000023A5
:1001600000260029002C002F0004040404040304CA
:100170000502020202040302020202060606060645
:100180000604040202020404040802011040804034
:1001900010204080408008020401804020100201AD
:1001A000108010204040200000000200090F0000D5
:1001B000030401000C00000000000000000000002B
:1001C000000000000000070605040100080A0B0CEF
:1001D0000D0900000000240027002A002D00300037
:1001E00000000000250028002B002E003100000038
:1001F00000002300260029002C002F000404040422
:1002000004030405020202020403020202020606BB
:100210000606060604040202020404040802011091
:10022000408040102040804080080204018040202F
:100230001002011080102040402000000002000940
:100240000F0000030401000C00000000000000008B
:10025000000000000000000000070605040100087F
:100260000A0B0C0D090011241FBECFEFDAE0DEBF30
:10027000CDBF11E0A0E0B1E0E0E5F7E002C00590FD
:100280000D92A633B107D9F721E0A6E3B1E001C092
:100290001D92A733B207E1F70E9452010C94A60306
:1002A0000C940000CF93DF9300D000D0CDB7DEB721
:1002B0009A8389837C836B8380E090E00F900F901A
:1002C0000F900F90DF91CF910895CF93DF9300D0DF
:1002D00000D0CDB7DEB79A8389837C836B83898115
:1002E0009A81892B19F48B818E5E01C08B810F90CE
:1002F0000F900F900F90DF91CF910895CF93DF93E0
:10030000CDB7DEB76E970FB6F894DEBF0FBECDBF88
:100310009A8F898F7C8F6B8F5E8F4D8F2B8D3C8D4D
:10032000898D9A8DB9010E94650189838981882F01
:1003300090E088579E4F9B838A838A819B81FC0132
:1003400084918C838C818D838981882F90E087595B
:100350009E4F9F838E838E819F81FC01849188872D
:10036000888589878985882309F497C08985882F9E
:1003700090E0880F991F815C9E4F9B878A878A85B2
:100380009B85FC0125913491CF013D872C879B876C
:100390008A878C859D859F878E878985882F90E0A9
:1003A000880F991F835B9E4F998B888B88899989C9
:1003B000FC0125913491CF013B8B2A8B998B888B43
:1003C0008A899B899D8B8C8B8D8D9E8D892B31F598
:1003D0008FE590E0FC0180818E8BF8948E859F855F
:1003E000FC018081982F8D8180958923282F8E850F
:1003F0009F85FC0120838C899D89FC018081982F39
:100400008D8180958923282F8C899D89FC012083EB
:100410008FE590E02E89FC01208340C08D8D9E8D5C
:10042000029721F58FE590E0FC0180818F8BF89495
:100430008E859F85FC018081982F8D8180958923F1
:10044000282F8E859F85FC0120838C899D89FC0146
:1004500090818D81292F282B8C899D89FC012083F7
:100460008FE590E02F89FC01208318C08FE590E094
:10047000FC018081888FF8948E859F85FC01908196
:100480008D81292F282B8E859F85FC0120838FE568
:1004900090E0288DFC01208301C000006E960FB60D
:1004A000F894DEBF0FBECDBFDF91CF910895CF93FB
:1004B000DF93CDB7DEB769970FB6F894DEBF0FBEF6
:1004C000CDBF9E8B8D8B788F6F8B498F2F89388D09
:1004D0008D899E89B9010E94650189838981882F50
:1004E00090E089559E4F9B838A838A819B81FC0182
:1004F00084918C838C818D838981882F90E08857AB
:100500009E4F9F838E838E819F81FC01849188877B
:10051000888589878981882F90E087599E4F9B879E
:100520008A878A859B85FC0184918C878C858D8741
:100530008D85882309F441C08D85882F90E0880F30
:10054000991F835B9E4F9F878E878E859F85FC01B9
:1005500025913491CF01398B288B9F878E8788898D
:1005600099899B8B8A8B8FE590E0FC0180818C8B35
:10057000F894998D81E08927882371F08A899B8975
:10058000FC018081982F898580958923282F8A896D
:100590009B89FC0120830BC08A899B89FC01908187
:1005A0008985292F282B8A899B89FC0120838FE547
:1005B00090E02C89FC01208301C0000069960FB6F1
:1005C000F894DEBF0FBECDBFDF91CF910895CF93DA
:1005D000DF93CDB7DEB765970FB6F894DEBF0FBED9
:1005E000CDBF9B8B8A8B7D8B6C8B2C893D898A89B7
:1005F0009B89B9010E94650189838981882F90E0D8
:1006000089559E4F9B838A838A819B81FC018491BB
:100610008C838C818D838981882F90E088579E4FB1
:100620009F838E838E819F81FC018491888788853A
:1006300089878981882F90E087599E4F9B878A8779
:100640008A859B85FC0184918C878C858D878D851F
:10065000882311F480E022C08D85882F90E0880FD8
:10066000991F855A9E4F9F878E878E859F85FC0197
:1006700025913491CF01398B288B9F878E8788896C
:100680009989FC0190818985982381E0992309F457
:1006900080E0882311F081E001C080E065960FB60C
:1006A000F894DEBF0FBECDBFDF91CF910895CF93F9
:1006B000DF9300D0CDB7DEB79A8389838981809399
:1006C000360100000F900F90DF91CF910895CF93E6
:1006D000DF9300D000D000D0CDB7DEB79A838983F6
:1006E0007C836B835E834D838D819E81892B49F44E
:1006F0002B813C8189819A8140E0B9010E94570297
:1007000008C02B813C8189819A8141E0B9010E9416
:100710005702000026960FB6F894DEBF0FBECDBF7D
:10072000DF91CF910895CF93DF9300D000D0CDB764
:10073000DEB79A8389837C836B8380E090E00F909F
:100740000F900F900F90DF91CF910895F894FFCF05
:10075000020311100E0F12131415161718191A1B75
:100760001C1D020311100E0F121314151617181961
:100770001A1B1C1D020311100E0F1213141516174D
:0607800018191A1B1C1DD4
:00000001FF
